{
  "_format": "hh-sol-artifact-1",
  "contractName": "EthEcho",
  "sourceName": "contracts/EthEcho.sol",
  "abi": [
    {
      "inputs": [],
      "stateMutability": "nonpayable",
      "type": "constructor"
    },
    {
      "anonymous": false,
      "inputs": [
        {
          "indexed": true,
          "internalType": "address",
          "name": "owner",
          "type": "address"
        },
        {
          "indexed": true,
          "internalType": "address",
          "name": "approved",
          "type": "address"
        },
        {
          "indexed": true,
          "internalType": "uint256",
          "name": "tokenId",
          "type": "uint256"
        }
      ],
      "name": "Approval",
      "type": "event"
    },
    {
      "anonymous": false,
      "inputs": [
        {
          "indexed": true,
          "internalType": "address",
          "name": "owner",
          "type": "address"
        },
        {
          "indexed": true,
          "internalType": "address",
          "name": "operator",
          "type": "address"
        },
        {
          "indexed": false,
          "internalType": "bool",
          "name": "approved",
          "type": "bool"
        }
      ],
      "name": "ApprovalForAll",
      "type": "event"
    },
    {
      "anonymous": false,
      "inputs": [
        {
          "indexed": false,
          "internalType": "uint256",
          "name": "_fromTokenId",
          "type": "uint256"
        },
        {
          "indexed": false,
          "internalType": "uint256",
          "name": "_toTokenId",
          "type": "uint256"
        }
      ],
      "name": "BatchMetadataUpdate",
      "type": "event"
    },
    {
      "anonymous": false,
      "inputs": [
        {
          "indexed": false,
          "internalType": "uint256",
          "name": "_tokenId",
          "type": "uint256"
        }
      ],
      "name": "MetadataUpdate",
      "type": "event"
    },
    {
      "anonymous": false,
      "inputs": [
        {
          "indexed": true,
          "internalType": "address",
          "name": "from",
          "type": "address"
        },
        {
          "indexed": false,
          "internalType": "uint256",
          "name": "timestamp",
          "type": "uint256"
        },
        {
          "indexed": false,
          "internalType": "string",
          "name": "message",
          "type": "string"
        }
      ],
      "name": "NewEcho",
      "type": "event"
    },
    {
      "anonymous": false,
      "inputs": [
        {
          "indexed": true,
          "internalType": "address",
          "name": "owner",
          "type": "address"
        },
        {
          "indexed": false,
          "internalType": "uint256",
          "name": "timestamp",
          "type": "uint256"
        },
        {
          "indexed": false,
          "internalType": "string",
          "name": "message",
          "type": "string"
        },
        {
          "indexed": false,
          "internalType": "string",
          "name": "tokenURI",
          "type": "string"
        }
      ],
      "name": "NewEchoNFT",
      "type": "event"
    },
    {
      "anonymous": false,
      "inputs": [
        {
          "indexed": true,
          "internalType": "address",
          "name": "from",
          "type": "address"
        },
        {
          "indexed": true,
          "internalType": "address",
          "name": "to",
          "type": "address"
        },
        {
          "indexed": true,
          "internalType": "uint256",
          "name": "tokenId",
          "type": "uint256"
        }
      ],
      "name": "Transfer",
      "type": "event"
    },
    {
      "inputs": [
        {
          "internalType": "address",
          "name": "to",
          "type": "address"
        },
        {
          "internalType": "uint256",
          "name": "tokenId",
          "type": "uint256"
        }
      ],
      "name": "approve",
      "outputs": [],
      "stateMutability": "nonpayable",
      "type": "function"
    },
    {
      "inputs": [
        {
          "internalType": "address",
          "name": "owner",
          "type": "address"
        }
      ],
      "name": "balanceOf",
      "outputs": [
        {
          "internalType": "uint256",
          "name": "",
          "type": "uint256"
        }
      ],
      "stateMutability": "view",
      "type": "function"
    },
    {
      "inputs": [
        {
          "internalType": "uint256",
          "name": "tokenId",
          "type": "uint256"
        }
      ],
      "name": "getApproved",
      "outputs": [
        {
          "internalType": "address",
          "name": "",
          "type": "address"
        }
      ],
      "stateMutability": "view",
      "type": "function"
    },
    {
      "inputs": [],
      "name": "getLatestEcho",
      "outputs": [
        {
          "components": [
            {
              "internalType": "address",
              "name": "echoer",
              "type": "address"
            },
            {
              "internalType": "string",
              "name": "message",
              "type": "string"
            },
            {
              "internalType": "uint256",
              "name": "timestamp",
              "type": "uint256"
            }
          ],
          "internalType": "struct EthEcho.Echo",
          "name": "",
          "type": "tuple"
        }
      ],
      "stateMutability": "view",
      "type": "function"
    },
    {
      "inputs": [],
      "name": "getTotalEchoes",
      "outputs": [
        {
          "internalType": "uint256",
          "name": "",
          "type": "uint256"
        }
      ],
      "stateMutability": "view",
      "type": "function"
    },
    {
      "inputs": [
        {
          "internalType": "address",
          "name": "owner",
          "type": "address"
        },
        {
          "internalType": "address",
          "name": "operator",
          "type": "address"
        }
      ],
      "name": "isApprovedForAll",
      "outputs": [
        {
          "internalType": "bool",
          "name": "",
          "type": "bool"
        }
      ],
      "stateMutability": "view",
      "type": "function"
    },
    {
      "inputs": [],
      "name": "makeAnEchoNFT",
      "outputs": [],
      "stateMutability": "nonpayable",
      "type": "function"
    },
    {
      "inputs": [],
      "name": "name",
      "outputs": [
        {
          "internalType": "string",
          "name": "",
          "type": "string"
        }
      ],
      "stateMutability": "view",
      "type": "function"
    },
    {
      "inputs": [
        {
          "internalType": "uint256",
          "name": "tokenId",
          "type": "uint256"
        }
      ],
      "name": "ownerOf",
      "outputs": [
        {
          "internalType": "address",
          "name": "",
          "type": "address"
        }
      ],
      "stateMutability": "view",
      "type": "function"
    },
    {
      "inputs": [
        {
          "internalType": "address",
          "name": "from",
          "type": "address"
        },
        {
          "internalType": "address",
          "name": "to",
          "type": "address"
        },
        {
          "internalType": "uint256",
          "name": "tokenId",
          "type": "uint256"
        }
      ],
      "name": "safeTransferFrom",
      "outputs": [],
      "stateMutability": "nonpayable",
      "type": "function"
    },
    {
      "inputs": [
        {
          "internalType": "address",
          "name": "from",
          "type": "address"
        },
        {
          "internalType": "address",
          "name": "to",
          "type": "address"
        },
        {
          "internalType": "uint256",
          "name": "tokenId",
          "type": "uint256"
        },
        {
          "internalType": "bytes",
          "name": "data",
          "type": "bytes"
        }
      ],
      "name": "safeTransferFrom",
      "outputs": [],
      "stateMutability": "nonpayable",
      "type": "function"
    },
    {
      "inputs": [
        {
          "internalType": "address",
          "name": "operator",
          "type": "address"
        },
        {
          "internalType": "bool",
          "name": "approved",
          "type": "bool"
        }
      ],
      "name": "setApprovalForAll",
      "outputs": [],
      "stateMutability": "nonpayable",
      "type": "function"
    },
    {
      "inputs": [
        {
          "internalType": "bytes4",
          "name": "interfaceId",
          "type": "bytes4"
        }
      ],
      "name": "supportsInterface",
      "outputs": [
        {
          "internalType": "bool",
          "name": "",
          "type": "bool"
        }
      ],
      "stateMutability": "view",
      "type": "function"
    },
    {
      "inputs": [],
      "name": "symbol",
      "outputs": [
        {
          "internalType": "string",
          "name": "",
          "type": "string"
        }
      ],
      "stateMutability": "view",
      "type": "function"
    },
    {
      "inputs": [
        {
          "internalType": "uint256",
          "name": "tokenId",
          "type": "uint256"
        }
      ],
      "name": "tokenURI",
      "outputs": [
        {
          "internalType": "string",
          "name": "",
          "type": "string"
        }
      ],
      "stateMutability": "view",
      "type": "function"
    },
    {
      "inputs": [
        {
          "internalType": "address",
          "name": "from",
          "type": "address"
        },
        {
          "internalType": "address",
          "name": "to",
          "type": "address"
        },
        {
          "internalType": "uint256",
          "name": "tokenId",
          "type": "uint256"
        }
      ],
      "name": "transferFrom",
      "outputs": [],
      "stateMutability": "nonpayable",
      "type": "function"
    },
    {
      "inputs": [
        {
          "internalType": "string",
          "name": "_message",
          "type": "string"
        }
      ],
      "name": "writeEcho",
      "outputs": [],
      "stateMutability": "nonpayable",
      "type": "function"
    }
  ],
  "bytecode": "0x608060405260405180610160016040528061012e81526020016141ba61012e91396008908161002e9190610463565b5034801561003b57600080fd5b506040518060400160405280600481526020017f4563686f000000000000000000000000000000000000000000000000000000008152506040518060400160405280600581526020017f534f45444100000000000000000000000000000000000000000000000000000081525081600090816100b79190610463565b5080600190816100c79190610463565b50505061010e6040518060400160405280602081526020017f48657265206973206d79207365636f6e6420736d61727420636f6e747261637481525061011360201b60201c565b61060b565b6101af8160405160240161012791906105ba565b6040516020818303038152906040527f41304fac000000000000000000000000000000000000000000000000000000007bffffffffffffffffffffffffffffffffffffffffffffffffffffffff19166020820180517bffffffffffffffffffffffffffffffffffffffffffffffffffffffff83818316178352505050506101b260201b60201c565b50565b6101d3816101ce6101d660201b610efe176101f760201b60201c565b60201c565b50565b60006a636f6e736f6c652e6c6f679050600080835160208501845afa505050565b61020960201b61228f17819050919050565b6102116105dc565b565b600081519050919050565b7f4e487b7100000000000000000000000000000000000000000000000000000000600052604160045260246000fd5b7f4e487b7100000000000000000000000000000000000000000000000000000000600052602260045260246000fd5b6000600282049050600182168061029457607f821691505b6020821081036102a7576102a661024d565b5b50919050565b60008190508160005260206000209050919050565b60006020601f8301049050919050565b600082821b905092915050565b60006008830261030f7fffffffffffffffffffffffffffffffffffffffffffffffffffffffffffffffff826102d2565b61031986836102d2565b95508019841693508086168417925050509392505050565b6000819050919050565b6000819050919050565b600061036061035b61035684610331565b61033b565b610331565b9050919050565b6000819050919050565b61037a83610345565b61038e61038682610367565b8484546102df565b825550505050565b600090565b6103a3610396565b6103ae818484610371565b505050565b5b818110156103d2576103c760008261039b565b6001810190506103b4565b5050565b601f821115610417576103e8816102ad565b6103f1846102c2565b81016020851015610400578190505b61041461040c856102c2565b8301826103b3565b50505b505050565b600082821c905092915050565b600061043a6000198460080261041c565b1980831691505092915050565b60006104538383610429565b9150826002028217905092915050565b61046c82610213565b67ffffffffffffffff8111156104855761048461021e565b5b61048f825461027c565b61049a8282856103d6565b600060209050601f8311600181146104cd57600084156104bb578287015190505b6104c58582610447565b86555061052d565b601f1984166104db866102ad565b60005b82811015610503578489015182556001820191506020850194506020810190506104de565b86831015610520578489015161051c601f891682610429565b8355505b6001600288020188555050505b505050505050565b600082825260208201905092915050565b60005b83811015610564578082015181840152602081019050610549565b60008484015250505050565b6000601f19601f8301169050919050565b600061058c82610213565b6105968185610535565b93506105a6818560208601610546565b6105af81610570565b840191505092915050565b600060208201905081810360008301526105d48184610581565b905092915050565b7f4e487b7100000000000000000000000000000000000000000000000000000000600052605160045260246000fd5b613ba08061061a6000396000f3fe608060405234801561001057600080fd5b506004361061010b5760003560e01c80636352211e116100a2578063b599efad11610071578063b599efad146102a2578063b88d4fde146102c0578063c87b56dd146102dc578063e985e9c51461030c578063f972b3721461033c5761010b565b80636352211e1461020857806370a082311461023857806395d89b4114610268578063a22cb465146102865761010b565b8063095ea7b3116100de578063095ea7b3146101aa57806314f6c8d7146101c657806323b872dd146101d057806342842e0e146101ec5761010b565b806301ffc9a71461011057806305eefb571461014057806306fdde031461015c578063081812fc1461017a575b600080fd5b61012a6004803603810190610125919061233c565b61035a565b6040516101379190612384565b60405180910390f35b61015a600480360381019061015591906124e5565b6103bb565b005b610164610505565b60405161017191906125ad565b60405180910390f35b610194600480360381019061018f9190612605565b610597565b6040516101a19190612673565b60405180910390f35b6101c460048036038101906101bf91906126ba565b6105dd565b005b6101ce6106f4565b005b6101ea60048036038101906101e591906126fa565b61093a565b005b610206600480360381019061020191906126fa565b61099a565b005b610222600480360381019061021d9190612605565b6109ba565b60405161022f9190612673565b60405180910390f35b610252600480360381019061024d919061274d565b610a40565b60405161025f9190612789565b60405180910390f35b610270610af7565b60405161027d91906125ad565b60405180910390f35b6102a0600480360381019061029b91906127d0565b610b89565b005b6102aa610b9f565b6040516102b791906128c8565b60405180910390f35b6102da60048036038101906102d5919061298b565b610cab565b005b6102f660048036038101906102f19190612605565b610d0d565b60405161030391906125ad565b60405180910390f35b61032660048036038101906103219190612a0e565b610e1f565b6040516103339190612384565b60405180910390f35b610344610eb3565b6040516103519190612789565b60405180910390f35b6000634906490660e01b7bffffffffffffffffffffffffffffffffffffffffffffffffffffffff1916827bffffffffffffffffffffffffffffffffffffffffffffffffffffffff191614806103b457506103b382610f1f565b5b9050919050565b6001600960008282546103ce9190612a7d565b925050819055506104156040518060400160405280601781526020017f2573206563686f656420772f206d6573736167652025730000000000000000008152503383611001565b60405180606001604052803373ffffffffffffffffffffffffffffffffffffffff16815260200182815260200142815250600a60008201518160000160006101000a81548173ffffffffffffffffffffffffffffffffffffffff021916908373ffffffffffffffffffffffffffffffffffffffff16021790555060208201518160010190816104a49190612cbd565b50604082015181600201559050503373ffffffffffffffffffffffffffffffffffffffff167fcc1768b2bb333c251e77c649cdb86a181eea2c913d04f3db035b7bdf1e2b7f4542836040516104fa929190612d8f565b60405180910390a250565b60606000805461051490612ae0565b80601f016020809104026020016040519081016040528092919081815260200182805461054090612ae0565b801561058d5780601f106105625761010080835404028352916020019161058d565b820191906000526020600020905b81548152906001019060200180831161057057829003601f168201915b5050505050905090565b60006105a2826110a0565b6004600083815260200190815260200160002060009054906101000a900473ffffffffffffffffffffffffffffffffffffffff169050919050565b60006105e8826109ba565b90508073ffffffffffffffffffffffffffffffffffffffff168373ffffffffffffffffffffffffffffffffffffffff1603610658576040517f08c379a000000000000000000000000000000000000000000000000000000000815260040161064f90612e31565b60405180910390fd5b8073ffffffffffffffffffffffffffffffffffffffff166106776110eb565b73ffffffffffffffffffffffffffffffffffffffff1614806106a657506106a5816106a06110eb565b610e1f565b5b6106e5576040517f08c379a00000000000000000000000000000000000000000000000000000000081526004016106dc90612ec3565b60405180910390fd5b6106ef83836110f3565b505050565b6106fe60076111ac565b600061070a60076111c2565b90506000610717826111d0565b600a60010160405160200161072d92919061303a565b604051602081830303815290604052905060006008826040516020016107549291906130c0565b60405160208183030381529060405290506107a36040518060400160405280601d81526020017f0a2d2d2d2d2d2d2d2d53564720646174612d2d2d2d2d2d2d2d2d2d2d2d00000081525061129e565b6107ac8161129e565b6107ea6040518060400160405280601d81526020017f2d2d2d2d2d2d2d2d2d2d2d2d2d2d2d2d2d2d2d2d2d2d2d2d2d2d2d2d0a00000081525061129e565b600061081e836107f984611337565b60405160200161080a929190613245565b604051602081830303815290604052611337565b905060008160405160200161083391906132d6565b60405160208183030381529060405290506108826040518060400160405280601e81526020017f0a2d2d2d2d2d2d2d2d546f6b656e205552492d2d2d2d2d2d2d2d2d2d2d2d000081525061129e565b61088b8161129e565b6108c96040518060400160405280601e81526020017f2d2d2d2d2d2d2d2d2d2d2d2d2d2d2d2d2d2d2d2d2d2d2d2d2d2d2d2d2d0a000081525061129e565b6108d333866114ce565b6108dd85826114ec565b3373ffffffffffffffffffffffffffffffffffffffff167fb055259a1fb65cb6c52a038b4e34fd58a57d4ad1a8031f29005ce738dfd5009942600a6001018460405161092b9392919061337c565b60405180910390a25050505050565b61094b6109456110eb565b82611590565b61098a576040517f08c379a000000000000000000000000000000000000000000000000000000000815260040161098190613433565b60405180910390fd5b610995838383611625565b505050565b6109b583838360405180602001604052806000815250610cab565b505050565b6000806109c68361191e565b9050600073ffffffffffffffffffffffffffffffffffffffff168173ffffffffffffffffffffffffffffffffffffffff1603610a37576040517f08c379a0000000000000000000000000000000000000000000000000000000008152600401610a2e9061349f565b60405180910390fd5b80915050919050565b60008073ffffffffffffffffffffffffffffffffffffffff168273ffffffffffffffffffffffffffffffffffffffff1603610ab0576040517f08c379a0000000000000000000000000000000000000000000000000000000008152600401610aa790613531565b60405180910390fd5b600360008373ffffffffffffffffffffffffffffffffffffffff1673ffffffffffffffffffffffffffffffffffffffff168152602001908152602001600020549050919050565b606060018054610b0690612ae0565b80601f0160208091040260200160405190810160405280929190818152602001828054610b3290612ae0565b8015610b7f5780601f10610b5457610100808354040283529160200191610b7f565b820191906000526020600020905b815481529060010190602001808311610b6257829003601f168201915b5050505050905090565b610b9b610b946110eb565b838361195b565b5050565b610ba7612299565b600a6040518060600160405290816000820160009054906101000a900473ffffffffffffffffffffffffffffffffffffffff1673ffffffffffffffffffffffffffffffffffffffff1673ffffffffffffffffffffffffffffffffffffffff168152602001600182018054610c1a90612ae0565b80601f0160208091040260200160405190810160405280929190818152602001828054610c4690612ae0565b8015610c935780601f10610c6857610100808354040283529160200191610c93565b820191906000526020600020905b815481529060010190602001808311610c7657829003601f168201915b50505050508152602001600282015481525050905090565b610cbc610cb66110eb565b83611590565b610cfb576040517f08c379a0000000000000000000000000000000000000000000000000000000008152600401610cf290613433565b60405180910390fd5b610d0784848484611ac7565b50505050565b6060610d18826110a0565b6000600660008481526020019081526020016000208054610d3890612ae0565b80601f0160208091040260200160405190810160405280929190818152602001828054610d6490612ae0565b8015610db15780601f10610d8657610100808354040283529160200191610db1565b820191906000526020600020905b815481529060010190602001808311610d9457829003601f168201915b505050505090506000610dc2611b23565b90506000815103610dd7578192505050610e1a565b600082511115610e0c578082604051602001610df4929190613551565b60405160208183030381529060405292505050610e1a565b610e1584611b3a565b925050505b919050565b6000600560008473ffffffffffffffffffffffffffffffffffffffff1673ffffffffffffffffffffffffffffffffffffffff16815260200190815260200160002060008373ffffffffffffffffffffffffffffffffffffffff1673ffffffffffffffffffffffffffffffffffffffff16815260200190815260200160002060009054906101000a900460ff16905092915050565b6000610ef66040518060400160405280601781526020017f5765206861766520256420746f74616c204563686f6573000000000000000000815250600954611ba2565b600954905090565b60006a636f6e736f6c652e6c6f679050600080835160208501845afa505050565b60007f80ac58cd000000000000000000000000000000000000000000000000000000007bffffffffffffffffffffffffffffffffffffffffffffffffffffffff1916827bffffffffffffffffffffffffffffffffffffffffffffffffffffffff19161480610fea57507f5b5e139f000000000000000000000000000000000000000000000000000000007bffffffffffffffffffffffffffffffffffffffffffffffffffffffff1916827bffffffffffffffffffffffffffffffffffffffffffffffffffffffff1916145b80610ffa5750610ff982611c3e565b5b9050919050565b61109b83838360405160240161101993929190613575565b6040516020818303038152906040527fe0e9ad4f000000000000000000000000000000000000000000000000000000007bffffffffffffffffffffffffffffffffffffffffffffffffffffffff19166020820180517bffffffffffffffffffffffffffffffffffffffffffffffffffffffff8381831617835250505050611ca8565b505050565b6110a981611cc2565b6110e8576040517f08c379a00000000000000000000000000000000000000000000000000000000081526004016110df9061349f565b60405180910390fd5b50565b600033905090565b816004600083815260200190815260200160002060006101000a81548173ffffffffffffffffffffffffffffffffffffffff021916908373ffffffffffffffffffffffffffffffffffffffff160217905550808273ffffffffffffffffffffffffffffffffffffffff16611166836109ba565b73ffffffffffffffffffffffffffffffffffffffff167f8c5be1e5ebec7d5bd14f71427d1e84f3dd0314c0f7b2291e5b200ac8c7c3b92560405160405180910390a45050565b6001816000016000828254019250508190555050565b600081600001549050919050565b6060600060016111df84611d03565b01905060008167ffffffffffffffff8111156111fe576111fd6123ba565b5b6040519080825280601f01601f1916602001820160405280156112305781602001600182028036833780820191505090505b509050600082602001820190505b600115611293578080600190039150507f3031323334353637383961626364656600000000000000000000000000000000600a86061a8153600a8581611287576112866135ba565b5b0494506000850361123e575b819350505050919050565b611334816040516024016112b291906125ad565b6040516020818303038152906040527f41304fac000000000000000000000000000000000000000000000000000000007bffffffffffffffffffffffffffffffffffffffffffffffffffffffff19166020820180517bffffffffffffffffffffffffffffffffffffffffffffffffffffffff8381831617835250505050611ca8565b50565b60606000825190506000810361135f57604051806020016040528060008152509150506114c9565b600060036002836113709190612a7d565b61137a91906135e9565b6004611386919061361a565b905060006020826113979190612a7d565b67ffffffffffffffff8111156113b0576113af6123ba565b5b6040519080825280601f01601f1916602001820160405280156113e25781602001600182028036833780820191505090505b5090506000604051806060016040528060408152602001613b2b604091399050600181016020830160005b868110156114865760038101905062ffffff818a015116603f8160121c168401518060081b905060ff603f83600c1c1686015116810190508060081b905060ff603f8360061c1686015116810190508060081b905060ff603f831686015116810190508060e01b9050808452600484019350505061140d565b5060038606600181146114a057600281146114b0576114bb565b613d3d60f01b60028303526114bb565b603d60f81b60018303525b508484525050819450505050505b919050565b6114e8828260405180602001604052806000815250611e56565b5050565b6114f582611cc2565b611534576040517f08c379a000000000000000000000000000000000000000000000000000000000815260040161152b906136ce565b60405180910390fd5b806006600084815260200190815260200160002090816115549190612cbd565b507ff8e1a15aba9398e019f0b49df1a4fde98ee17ae345cb5f6b5e2c27f5033e8ce7826040516115849190612789565b60405180910390a15050565b60008061159c836109ba565b90508073ffffffffffffffffffffffffffffffffffffffff168473ffffffffffffffffffffffffffffffffffffffff1614806115de57506115dd8185610e1f565b5b8061161c57508373ffffffffffffffffffffffffffffffffffffffff1661160484610597565b73ffffffffffffffffffffffffffffffffffffffff16145b91505092915050565b8273ffffffffffffffffffffffffffffffffffffffff16611645826109ba565b73ffffffffffffffffffffffffffffffffffffffff161461169b576040517f08c379a000000000000000000000000000000000000000000000000000000000815260040161169290613760565b60405180910390fd5b600073ffffffffffffffffffffffffffffffffffffffff168273ffffffffffffffffffffffffffffffffffffffff160361170a576040517f08c379a0000000000000000000000000000000000000000000000000000000008152600401611701906137f2565b60405180910390fd5b6117178383836001611eb1565b8273ffffffffffffffffffffffffffffffffffffffff16611737826109ba565b73ffffffffffffffffffffffffffffffffffffffff161461178d576040517f08c379a000000000000000000000000000000000000000000000000000000000815260040161178490613760565b60405180910390fd5b6004600082815260200190815260200160002060006101000a81549073ffffffffffffffffffffffffffffffffffffffff02191690556001600360008573ffffffffffffffffffffffffffffffffffffffff1673ffffffffffffffffffffffffffffffffffffffff168152602001908152602001600020600082825403925050819055506001600360008473ffffffffffffffffffffffffffffffffffffffff1673ffffffffffffffffffffffffffffffffffffffff16815260200190815260200160002060008282540192505081905550816002600083815260200190815260200160002060006101000a81548173ffffffffffffffffffffffffffffffffffffffff021916908373ffffffffffffffffffffffffffffffffffffffff160217905550808273ffffffffffffffffffffffffffffffffffffffff168473ffffffffffffffffffffffffffffffffffffffff167fddf252ad1be2c89b69c2b068fc378daa952ba7f163c4a11628f55a4df523b3ef60405160405180910390a46119198383836001611eb7565b505050565b60006002600083815260200190815260200160002060009054906101000a900473ffffffffffffffffffffffffffffffffffffffff169050919050565b8173ffffffffffffffffffffffffffffffffffffffff168373ffffffffffffffffffffffffffffffffffffffff16036119c9576040517f08c379a00000000000000000000000000000000000000000000000000000000081526004016119c09061385e565b60405180910390fd5b80600560008573ffffffffffffffffffffffffffffffffffffffff1673ffffffffffffffffffffffffffffffffffffffff16815260200190815260200160002060008473ffffffffffffffffffffffffffffffffffffffff1673ffffffffffffffffffffffffffffffffffffffff16815260200190815260200160002060006101000a81548160ff0219169083151502179055508173ffffffffffffffffffffffffffffffffffffffff168373ffffffffffffffffffffffffffffffffffffffff167f17307eab39ab6107e8899845ad3d59bd9653f200f220920489ca2b5937696c3183604051611aba9190612384565b60405180910390a3505050565b611ad2848484611625565b611ade84848484611ebd565b611b1d576040517f08c379a0000000000000000000000000000000000000000000000000000000008152600401611b14906138f0565b60405180910390fd5b50505050565b606060405180602001604052806000815250905090565b6060611b45826110a0565b6000611b4f611b23565b90506000815111611b6f5760405180602001604052806000815250611b9a565b80611b79846111d0565b604051602001611b8a929190613551565b6040516020818303038152906040525b915050919050565b611c3a8282604051602401611bb8929190613910565b6040516020818303038152906040527fb60e72cc000000000000000000000000000000000000000000000000000000007bffffffffffffffffffffffffffffffffffffffffffffffffffffffff19166020820180517bffffffffffffffffffffffffffffffffffffffffffffffffffffffff8381831617835250505050611ca8565b5050565b60007f01ffc9a7000000000000000000000000000000000000000000000000000000007bffffffffffffffffffffffffffffffffffffffffffffffffffffffff1916827bffffffffffffffffffffffffffffffffffffffffffffffffffffffff1916149050919050565b611cbf81611cb7610efe612044565b63ffffffff16565b50565b60008073ffffffffffffffffffffffffffffffffffffffff16611ce48361191e565b73ffffffffffffffffffffffffffffffffffffffff1614159050919050565b600080600090507a184f03e93ff9f4daa797ed6e38ed64bf6a1f0100000000000000008310611d61577a184f03e93ff9f4daa797ed6e38ed64bf6a1f0100000000000000008381611d5757611d566135ba565b5b0492506040810190505b6d04ee2d6d415b85acef81000000008310611d9e576d04ee2d6d415b85acef81000000008381611d9457611d936135ba565b5b0492506020810190505b662386f26fc100008310611dcd57662386f26fc100008381611dc357611dc26135ba565b5b0492506010810190505b6305f5e1008310611df6576305f5e1008381611dec57611deb6135ba565b5b0492506008810190505b6127108310611e1b576127108381611e1157611e106135ba565b5b0492506004810190505b60648310611e3e5760648381611e3457611e336135ba565b5b0492506002810190505b600a8310611e4d576001810190505b80915050919050565b611e60838361204f565b611e6d6000848484611ebd565b611eac576040517f08c379a0000000000000000000000000000000000000000000000000000000008152600401611ea3906138f0565b60405180910390fd5b505050565b50505050565b50505050565b6000611ede8473ffffffffffffffffffffffffffffffffffffffff1661226c565b15612037578373ffffffffffffffffffffffffffffffffffffffff1663150b7a02611f076110eb565b8786866040518563ffffffff1660e01b8152600401611f299493929190613995565b6020604051808303816000875af1925050508015611f6557506040513d601f19601f82011682018060405250810190611f6291906139f6565b60015b611fe7573d8060008114611f95576040519150601f19603f3d011682016040523d82523d6000602084013e611f9a565b606091505b506000815103611fdf576040517f08c379a0000000000000000000000000000000000000000000000000000000008152600401611fd6906138f0565b60405180910390fd5b805181602001fd5b63150b7a0260e01b7bffffffffffffffffffffffffffffffffffffffffffffffffffffffff1916817bffffffffffffffffffffffffffffffffffffffffffffffffffffffff19161491505061203c565b600190505b949350505050565b61228f819050919050565b600073ffffffffffffffffffffffffffffffffffffffff168273ffffffffffffffffffffffffffffffffffffffff16036120be576040517f08c379a00000000000000000000000000000000000000000000000000000000081526004016120b590613a6f565b60405180910390fd5b6120c781611cc2565b15612107576040517f08c379a00000000000000000000000000000000000000000000000000000000081526004016120fe90613adb565b60405180910390fd5b612115600083836001611eb1565b61211e81611cc2565b1561215e576040517f08c379a000000000000000000000000000000000000000000000000000000000815260040161215590613adb565b60405180910390fd5b6001600360008473ffffffffffffffffffffffffffffffffffffffff1673ffffffffffffffffffffffffffffffffffffffff16815260200190815260200160002060008282540192505081905550816002600083815260200190815260200160002060006101000a81548173ffffffffffffffffffffffffffffffffffffffff021916908373ffffffffffffffffffffffffffffffffffffffff160217905550808273ffffffffffffffffffffffffffffffffffffffff16600073ffffffffffffffffffffffffffffffffffffffff167fddf252ad1be2c89b69c2b068fc378daa952ba7f163c4a11628f55a4df523b3ef60405160405180910390a4612268600083836001611eb7565b5050565b6000808273ffffffffffffffffffffffffffffffffffffffff163b119050919050565b612297613afb565b565b6040518060600160405280600073ffffffffffffffffffffffffffffffffffffffff16815260200160608152602001600081525090565b6000604051905090565b600080fd5b600080fd5b60007fffffffff0000000000000000000000000000000000000000000000000000000082169050919050565b612319816122e4565b811461232457600080fd5b50565b60008135905061233681612310565b92915050565b600060208284031215612352576123516122da565b5b600061236084828501612327565b91505092915050565b60008115159050919050565b61237e81612369565b82525050565b60006020820190506123996000830184612375565b92915050565b600080fd5b600080fd5b6000601f19601f8301169050919050565b7f4e487b7100000000000000000000000000000000000000000000000000000000600052604160045260246000fd5b6123f2826123a9565b810181811067ffffffffffffffff82111715612411576124106123ba565b5b80604052505050565b60006124246122d0565b905061243082826123e9565b919050565b600067ffffffffffffffff8211156124505761244f6123ba565b5b612459826123a9565b9050602081019050919050565b82818337600083830152505050565b600061248861248384612435565b61241a565b9050828152602081018484840111156124a4576124a36123a4565b5b6124af848285612466565b509392505050565b600082601f8301126124cc576124cb61239f565b5b81356124dc848260208601612475565b91505092915050565b6000602082840312156124fb576124fa6122da565b5b600082013567ffffffffffffffff811115612519576125186122df565b5b612525848285016124b7565b91505092915050565b600081519050919050565b600082825260208201905092915050565b60005b8381101561256857808201518184015260208101905061254d565b60008484015250505050565b600061257f8261252e565b6125898185612539565b935061259981856020860161254a565b6125a2816123a9565b840191505092915050565b600060208201905081810360008301526125c78184612574565b905092915050565b6000819050919050565b6125e2816125cf565b81146125ed57600080fd5b50565b6000813590506125ff816125d9565b92915050565b60006020828403121561261b5761261a6122da565b5b6000612629848285016125f0565b91505092915050565b600073ffffffffffffffffffffffffffffffffffffffff82169050919050565b600061265d82612632565b9050919050565b61266d81612652565b82525050565b60006020820190506126886000830184612664565b92915050565b61269781612652565b81146126a257600080fd5b50565b6000813590506126b48161268e565b92915050565b600080604083850312156126d1576126d06122da565b5b60006126df858286016126a5565b92505060206126f0858286016125f0565b9150509250929050565b600080600060608486031215612713576127126122da565b5b6000612721868287016126a5565b9350506020612732868287016126a5565b9250506040612743868287016125f0565b9150509250925092565b600060208284031215612763576127626122da565b5b6000612771848285016126a5565b91505092915050565b612783816125cf565b82525050565b600060208201905061279e600083018461277a565b92915050565b6127ad81612369565b81146127b857600080fd5b50565b6000813590506127ca816127a4565b92915050565b600080604083850312156127e7576127e66122da565b5b60006127f5858286016126a5565b9250506020612806858286016127bb565b9150509250929050565b61281981612652565b82525050565b600082825260208201905092915050565b600061283b8261252e565b612845818561281f565b935061285581856020860161254a565b61285e816123a9565b840191505092915050565b612872816125cf565b82525050565b60006060830160008301516128906000860182612810565b50602083015184820360208601526128a88282612830565b91505060408301516128bd6040860182612869565b508091505092915050565b600060208201905081810360008301526128e28184612878565b905092915050565b600067ffffffffffffffff821115612905576129046123ba565b5b61290e826123a9565b9050602081019050919050565b600061292e612929846128ea565b61241a565b90508281526020810184848401111561294a576129496123a4565b5b612955848285612466565b509392505050565b600082601f8301126129725761297161239f565b5b813561298284826020860161291b565b91505092915050565b600080600080608085870312156129a5576129a46122da565b5b60006129b3878288016126a5565b94505060206129c4878288016126a5565b93505060406129d5878288016125f0565b925050606085013567ffffffffffffffff8111156129f6576129f56122df565b5b612a028782880161295d565b91505092959194509250565b60008060408385031215612a2557612a246122da565b5b6000612a33858286016126a5565b9250506020612a44858286016126a5565b9150509250929050565b7f4e487b7100000000000000000000000000000000000000000000000000000000600052601160045260246000fd5b6000612a88826125cf565b9150612a93836125cf565b9250828201905080821115612aab57612aaa612a4e565b5b92915050565b7f4e487b7100000000000000000000000000000000000000000000000000000000600052602260045260246000fd5b60006002820490506001821680612af857607f821691505b602082108103612b0b57612b0a612ab1565b5b50919050565b60008190508160005260206000209050919050565b60006020601f8301049050919050565b600082821b905092915050565b600060088302612b737fffffffffffffffffffffffffffffffffffffffffffffffffffffffffffffffff82612b36565b612b7d8683612b36565b95508019841693508086168417925050509392505050565b6000819050919050565b6000612bba612bb5612bb0846125cf565b612b95565b6125cf565b9050919050565b6000819050919050565b612bd483612b9f565b612be8612be082612bc1565b848454612b43565b825550505050565b600090565b612bfd612bf0565b612c08818484612bcb565b505050565b5b81811015612c2c57612c21600082612bf5565b600181019050612c0e565b5050565b601f821115612c7157612c4281612b11565b612c4b84612b26565b81016020851015612c5a578190505b612c6e612c6685612b26565b830182612c0d565b50505b505050565b600082821c905092915050565b6000612c9460001984600802612c76565b1980831691505092915050565b6000612cad8383612c83565b9150826002028217905092915050565b612cc68261252e565b67ffffffffffffffff811115612cdf57612cde6123ba565b5b612ce98254612ae0565b612cf4828285612c30565b600060209050601f831160018114612d275760008415612d15578287015190505b612d1f8582612ca1565b865550612d87565b601f198416612d3586612b11565b60005b82811015612d5d57848901518255600182019150602085019450602081019050612d38565b86831015612d7a5784890151612d76601f891682612c83565b8355505b6001600288020188555050505b505050505050565b6000604082019050612da4600083018561277a565b8181036020830152612db68184612574565b90509392505050565b7f4552433732313a20617070726f76616c20746f2063757272656e74206f776e6560008201527f7200000000000000000000000000000000000000000000000000000000000000602082015250565b6000612e1b602183612539565b9150612e2682612dbf565b604082019050919050565b60006020820190508181036000830152612e4a81612e0e565b9050919050565b7f4552433732313a20617070726f76652063616c6c6572206973206e6f7420746f60008201527f6b656e206f776e6572206f7220617070726f76656420666f7220616c6c000000602082015250565b6000612ead603d83612539565b9150612eb882612e51565b604082019050919050565b60006020820190508181036000830152612edc81612ea0565b9050919050565b600081905092915050565b7f536f6564614e4654202300000000000000000000000000000000000000000000600082015250565b6000612f24600a83612ee3565b9150612f2f82612eee565b600a82019050919050565b6000612f458261252e565b612f4f8185612ee3565b9350612f5f81856020860161254a565b80840191505092915050565b7f202d200000000000000000000000000000000000000000000000000000000000600082015250565b6000612fa1600383612ee3565b9150612fac82612f6b565b600382019050919050565b60008154612fc481612ae0565b612fce8186612ee3565b94506001821660008114612fe95760018114612ffe57613031565b60ff1983168652811515820286019350613031565b61300785612b11565b60005b838110156130295781548189015260018201915060208101905061300a565b838801955050505b50505092915050565b600061304582612f17565b91506130518285612f3a565b915061305c82612f94565b91506130688284612fb7565b91508190509392505050565b7f3c2f746578743e3c2f7376673e00000000000000000000000000000000000000600082015250565b60006130aa600d83612ee3565b91506130b582613074565b600d82019050919050565b60006130cc8285612fb7565b91506130d88284612f3a565b91506130e38261309d565b91508190509392505050565b7f7b226e616d65223a202200000000000000000000000000000000000000000000600082015250565b6000613125600a83612ee3565b9150613130826130ef565b600a82019050919050565b7f222c20226465736372697074696f6e223a20224120686967686c79206163636c60008201527f61696d656420636f6c6c656374696f6e206f6620736f6564612e222c2022696d60208201527f616765223a2022646174613a696d6167652f7376672b786d6c3b62617365363460408201527f2c00000000000000000000000000000000000000000000000000000000000000606082015250565b60006131e3606183612ee3565b91506131ee8261313b565b606182019050919050565b7f227d000000000000000000000000000000000000000000000000000000000000600082015250565b600061322f600283612ee3565b915061323a826131f9565b600282019050919050565b600061325082613118565b915061325c8285612f3a565b9150613267826131d6565b91506132738284612f3a565b915061327e82613222565b91508190509392505050565b7f646174613a6170706c69636174696f6e2f6a736f6e3b6261736536342c000000600082015250565b60006132c0601d83612ee3565b91506132cb8261328a565b601d82019050919050565b60006132e1826132b3565b91506132ed8284612f3a565b915081905092915050565b6000815461330581612ae0565b61330f8186612539565b9450600182166000811461332a576001811461334057613373565b60ff198316865281151560200286019350613373565b61334985612b11565b60005b8381101561336b5781548189015260018201915060208101905061334c565b808801955050505b50505092915050565b6000606082019050613391600083018661277a565b81810360208301526133a381856132f8565b905081810360408301526133b78184612574565b9050949350505050565b7f4552433732313a2063616c6c6572206973206e6f7420746f6b656e206f776e6560008201527f72206f7220617070726f76656400000000000000000000000000000000000000602082015250565b600061341d602d83612539565b9150613428826133c1565b604082019050919050565b6000602082019050818103600083015261344c81613410565b9050919050565b7f4552433732313a20696e76616c696420746f6b656e2049440000000000000000600082015250565b6000613489601883612539565b915061349482613453565b602082019050919050565b600060208201905081810360008301526134b88161347c565b9050919050565b7f4552433732313a2061646472657373207a65726f206973206e6f74206120766160008201527f6c6964206f776e65720000000000000000000000000000000000000000000000602082015250565b600061351b602983612539565b9150613526826134bf565b604082019050919050565b6000602082019050818103600083015261354a8161350e565b9050919050565b600061355d8285612f3a565b91506135698284612f3a565b91508190509392505050565b6000606082019050818103600083015261358f8186612574565b905061359e6020830185612664565b81810360408301526135b08184612574565b9050949350505050565b7f4e487b7100000000000000000000000000000000000000000000000000000000600052601260045260246000fd5b60006135f4826125cf565b91506135ff836125cf565b92508261360f5761360e6135ba565b5b828204905092915050565b6000613625826125cf565b9150613630836125cf565b925082820261363e816125cf565b9150828204841483151761365557613654612a4e565b5b5092915050565b7f45524337323155524953746f726167653a2055524920736574206f66206e6f6e60008201527f6578697374656e7420746f6b656e000000000000000000000000000000000000602082015250565b60006136b8602e83612539565b91506136c38261365c565b604082019050919050565b600060208201905081810360008301526136e7816136ab565b9050919050565b7f4552433732313a207472616e736665722066726f6d20696e636f72726563742060008201527f6f776e6572000000000000000000000000000000000000000000000000000000602082015250565b600061374a602583612539565b9150613755826136ee565b604082019050919050565b600060208201905081810360008301526137798161373d565b9050919050565b7f4552433732313a207472616e7366657220746f20746865207a65726f2061646460008201527f7265737300000000000000000000000000000000000000000000000000000000602082015250565b60006137dc602483612539565b91506137e782613780565b604082019050919050565b6000602082019050818103600083015261380b816137cf565b9050919050565b7f4552433732313a20617070726f766520746f2063616c6c657200000000000000600082015250565b6000613848601983612539565b915061385382613812565b602082019050919050565b600060208201905081810360008301526138778161383b565b9050919050565b7f4552433732313a207472616e7366657220746f206e6f6e20455243373231526560008201527f63656976657220696d706c656d656e7465720000000000000000000000000000602082015250565b60006138da603283612539565b91506138e58261387e565b604082019050919050565b60006020820190508181036000830152613909816138cd565b9050919050565b6000604082019050818103600083015261392a8185612574565b9050613939602083018461277a565b9392505050565b600081519050919050565b600082825260208201905092915050565b600061396782613940565b613971818561394b565b935061398181856020860161254a565b61398a816123a9565b840191505092915050565b60006080820190506139aa6000830187612664565b6139b76020830186612664565b6139c4604083018561277a565b81810360608301526139d6818461395c565b905095945050505050565b6000815190506139f081612310565b92915050565b600060208284031215613a0c57613a0b6122da565b5b6000613a1a848285016139e1565b91505092915050565b7f4552433732313a206d696e7420746f20746865207a65726f2061646472657373600082015250565b6000613a59602083612539565b9150613a6482613a23565b602082019050919050565b60006020820190508181036000830152613a8881613a4c565b9050919050565b7f4552433732313a20746f6b656e20616c7265616479206d696e74656400000000600082015250565b6000613ac5601c83612539565b9150613ad082613a8f565b602082019050919050565b60006020820190508181036000830152613af481613ab8565b9050919050565b7f4e487b7100000000000000000000000000000000000000000000000000000000600052605160045260246000fdfe4142434445464748494a4b4c4d4e4f505152535455565758595a6162636465666768696a6b6c6d6e6f707172737475767778797a303132333435363738392b2fa2646970667358221220d8305de05493eb669d2760dbc46fe9d1b5d87fe0abc6f2f3aef585a85a265cfd64736f6c634300081c00333c73766720786d6c6e733d27687474703a2f2f7777772e77332e6f72672f323030302f73766727207072657365727665417370656374526174696f3d27784d696e594d696e206d656574272076696577426f783d273020302033353020333530273e3c7374796c653e2e62617365207b66696c6c3a2077686974653b20666f6e742d66616d696c793a2073657269663b20666f6e742d73697a653a20323470783b207d3c2f7374796c653e3c726563742077696474683d273130302527206865696768743d2731303025272066696c6c3d27626c61636b27202f3e3c7465787420783d273530252720793d273530252720636c6173733d27626173652720646f6d696e616e742d626173656c696e653d276d6964646c652720746578742d616e63686f723d276d6964646c65273e",
  "linkReferences": {},
  "deployedLinkReferences": {}
}